{
  "_format": "hh-sol-artifact-1",
  "contractName": "PdfVerifier",
  "sourceName": "contracts/PdfVerifier.sol",
  "abi": [
    {
      "inputs": [
        {
          "internalType": "address",
          "name": "_signProtocol",
          "type": "address"
        },
        {
          "internalType": "address",
          "name": "_trustedAttester",
          "type": "address"
        }
      ],
      "stateMutability": "nonpayable",
      "type": "constructor"
    },
    {
      "anonymous": false,
      "inputs": [
        {
          "indexed": true,
          "internalType": "address",
          "name": "verifier",
          "type": "address"
        },
        {
          "indexed": false,
          "internalType": "bytes",
          "name": "pdfHash",
          "type": "bytes"
        }
      ],
      "name": "PdfVerified",
      "type": "event"
    },
    {
      "inputs": [],
      "name": "signProtocol",
      "outputs": [
        {
          "internalType": "contract ISignProtocol",
          "name": "",
          "type": "address"
        }
      ],
      "stateMutability": "view",
      "type": "function"
    },
    {
      "inputs": [],
      "name": "trustedAttester",
      "outputs": [
        {
          "internalType": "address",
          "name": "",
          "type": "address"
        }
      ],
      "stateMutability": "view",
      "type": "function"
    },
    {
      "inputs": [
        {
          "internalType": "bytes",
          "name": "signature",
          "type": "bytes"
        },
        {
          "internalType": "bytes",
          "name": "pdfHash",
          "type": "bytes"
        }
      ],
      "name": "verifyPdf",
      "outputs": [],
      "stateMutability": "nonpayable",
      "type": "function"
    }
  ],
  "bytecode": "0x608060405234801561001057600080fd5b506040516107d53803806107d58339818101604052810190610032919061011d565b816000806101000a81548173ffffffffffffffffffffffffffffffffffffffff021916908373ffffffffffffffffffffffffffffffffffffffff16021790555080600160006101000a81548173ffffffffffffffffffffffffffffffffffffffff021916908373ffffffffffffffffffffffffffffffffffffffff160217905550505061015d565b600080fd5b600073ffffffffffffffffffffffffffffffffffffffff82169050919050565b60006100ea826100bf565b9050919050565b6100fa816100df565b811461010557600080fd5b50565b600081519050610117816100f1565b92915050565b60008060408385031215610134576101336100ba565b5b600061014285828601610108565b925050602061015385828601610108565b9150509250929050565b6106698061016c6000396000f3fe608060405234801561001057600080fd5b50600436106100415760003560e01c8063039d846c14610046578063fd99f37d14610062578063ff653a7214610080575b600080fd5b610060600480360381019061005b91906102d6565b61009e565b005b61006a61021d565b60405161007791906103d6565b60405180910390f35b610088610241565b6040516100959190610412565b60405180910390f35b60008054906101000a900473ffffffffffffffffffffffffffffffffffffffff1673ffffffffffffffffffffffffffffffffffffffff1663c725a213600160009054906101000a900473ffffffffffffffffffffffffffffffffffffffff16848460405160200161011092919061046c565b6040516020818303038152906040528051906020012087876040518563ffffffff1660e01b815260040161014794939291906104ed565b602060405180830381865afa158015610164573d6000803e3d6000fd5b505050506040513d601f19601f820116820180604052508101906101889190610565565b6101c7576040517f08c379a00000000000000000000000000000000000000000000000000000000081526004016101be906105ef565b60405180910390fd5b3373ffffffffffffffffffffffffffffffffffffffff167fe3d52b397e8f09aade9b4f693f918dbcef345b5899d260e29c8eed81e0bc69a7838360405161020f92919061060f565b60405180910390a250505050565b60008054906101000a900473ffffffffffffffffffffffffffffffffffffffff1681565b600160009054906101000a900473ffffffffffffffffffffffffffffffffffffffff1681565b600080fd5b600080fd5b600080fd5b600080fd5b600080fd5b60008083601f84011261029657610295610271565b5b8235905067ffffffffffffffff8111156102b3576102b2610276565b5b6020830191508360018202830111156102cf576102ce61027b565b5b9250929050565b600080600080604085870312156102f0576102ef610267565b5b600085013567ffffffffffffffff81111561030e5761030d61026c565b5b61031a87828801610280565b9450945050602085013567ffffffffffffffff81111561033d5761033c61026c565b5b61034987828801610280565b925092505092959194509250565b600073ffffffffffffffffffffffffffffffffffffffff82169050919050565b6000819050919050565b600061039c61039761039284610357565b610377565b610357565b9050919050565b60006103ae82610381565b9050919050565b60006103c0826103a3565b9050919050565b6103d0816103b5565b82525050565b60006020820190506103eb60008301846103c7565b92915050565b60006103fc82610357565b9050919050565b61040c816103f1565b82525050565b60006020820190506104276000830184610403565b92915050565b600081905092915050565b82818337600083830152505050565b6000610453838561042d565b9350610460838584610438565b82840190509392505050565b6000610479828486610447565b91508190509392505050565b6000819050919050565b61049881610485565b82525050565b600082825260208201905092915050565b6000601f19601f8301169050919050565b60006104cc838561049e565b93506104d9838584610438565b6104e2836104af565b840190509392505050565b60006060820190506105026000830187610403565b61050f602083018661048f565b81810360408301526105228184866104c0565b905095945050505050565b60008115159050919050565b6105428161052d565b811461054d57600080fd5b50565b60008151905061055f81610539565b92915050565b60006020828403121561057b5761057a610267565b5b600061058984828501610550565b91505092915050565b600082825260208201905092915050565b7f496e76616c696420504446207369676e61747572650000000000000000000000600082015250565b60006105d9601583610592565b91506105e4826105a3565b602082019050919050565b60006020820190508181036000830152610608816105cc565b9050919050565b6000602082019050818103600083015261062a8184866104c0565b9050939250505056fea2646970667358221220402cf58be24a687758eed2741e1c4b466f20380548b005b22904958301d6812c64736f6c634300081c0033",
  "linkReferences": {},
  "deployedLinkReferences": {}
}